S01700006C65645F626C696E6B5F706F7274432E7372656302
S11300000C942A000C9434000C9434000C943400A6
S11300100C9434000C9434000C9434000C9434008C
S11300200C9434000C9434000C9434000C9434007C
S11300300C9434000C9434000C9434000C9434006C
S11300400C9434000C9434000C9434000C9434005C
S11300500C94340011241FBECFE5D8E0DEBFCDBF21
S11300600E9436000C9469000C940000D09A84B36A
S11300708FEF84BB91B381BB61E070E020E030E09E
S1130080D89A45B3CB01022E02C0880F991F0A9457
S1130090E2F7942F982B95BB92B3982B92BBEFE584
S11300A0FAEE3197F1F700C00000D89895B3809527
S11300B0982395BB92B3892382BB8FE59AEE01976F
S11300C0F1F700C000002F5F3F4F28303105C1F623
S10900D0D5CFF894FFCF28
S9030000FC
