S0220000626C7565746F6F74685F73706565645F636F6E74726F6C6C65722E7372656319
S11300000C942A000C9434000C9434000C943400A6
S11300100C9434000C9434000C9434000C9434008C
S11300200C9434000C9434000C9434000C9434007C
S11300300C9434000C9434000C9434000C9434006C
S11300400C9434000C9434000C9434000C9434005C
S11300500C94340011241FBECFE5D8E0DEBFCDBF21
S11300600E9436000C9461000C94000084B38FEF5E
S113007084BB0E9455000E945D00813611F4A99A48
S1130080FACF823611F4A998F6CF833611F4AA9ADE
S1130090F2CF843611F4AA98EECF853611F4AB9AD8
S11300A0EACF863641F7AB98E6CF88E18AB986E88D
S11300B080BD10BC83E389B908955F9BFECF8CB1EA
S10900C00895F894FFCF3F
S9030000FC
