:100000000C942A000C9434000C9434000C943400AA
:100010000C9434000C9434000C9434000C94340090
:100020000C9434000C9434000C9434000C94340080
:100030000C9434000C9434000C9434000C94340070
:100040000C9434000C9434000C9434000C94340060
:100050000C94340011241FBECFE5D8E0DEBFCDBF25
:100060000E9436000C9448000C94000084B38FEF7B
:1000700084BB9FEF829907C08AE18A95F1F700C09F
:1000800085B395BBF7CF8399F5CF85B315BAF2CF7A
:04009000F894FFCF12
:00000001FF
