S00D000064617931392E737265636F
S11300000C942A000C943C000C943C000C943C008E
S11300100C943C000C943C000C943C000C943C006C
S11300200C943C000C943C000C943C000C943C005C
S11300300C943C000C943C000C943C000C943C004C
S11300400C943C000C943C000C943C000C943C003C
S11300500C943C0011241FBECFE5D8E0DEBFCDBF19
S113006020E0A0E6B0E001C01D92A236B207E1F79D
S11300700E9467000C94A3000C9400008EB581606C
S11300808EBD8EB582608EBD8EB58B7F8EBD8FB5D5
S11300908E7F8FBD8FB582608FBD8EB588608EBD1B
S11300A08EB580618EBD8FB58F7B8FBD8FB5806817
S11300B08FBD8FB58F7E8FBD8FB580628FBD1DBC08
S11300C01CBC83EC99E097BD86BD789408958D9A05
S11300D00E943E0034EC29E010926100109260000E
S11300E080E090E09BBD8ABD8FEC97E00197F1F72B
S11300F000C000008091600090916100019690938F
S1130100610080936000853C49E094075CF314C06F
S11301109BBD8ABD8FEC97E00197F1F700C000000A
S113012080916000909161000197909361008093A9
S1130130600099236CF7D0CF309360002093610066
S10D0140832F922FE5CFF894FFCF30
S9030000FC
