:100000000C942A000C943C000C943C000C943C0092
:100010000C943C000C943C000C943C000C943C0070
:100020000C943C000C943C000C943C000C943C0060
:100030000C943C000C943C000C943C000C943C0050
:100040000C943C000C943C000C943C000C943C0040
:100050000C943C0011241FBECFE5D8E0DEBFCDBF1D
:1000600020E0A0E6B0E001C01D92A036B207E1F7A3
:100070000E9461000C948C000C9400008EB581608D
:100080008EBD8EB582608EBD8EB58B7F8EBD8FB5D9
:100090008E7F8FBD8FB582608FBD8EB588608EBD1F
:1000A0008EB580618EBD8FB58F7B8FBD8FB580681B
:1000B0008FBD1DBC1CBC83EC99E097BD86BD7894B8
:1000C00008958D9A0E943E004DE750E02BEB30E002
:1000D0008AEF90E05BBD4ABD6FEF79E6E8E16150E1
:1000E0007040E040E1F700C000003BBD2ABD6FEF6B
:1000F00079E6E8E161507040E040E1F700C00000BF
:100100009BBD8ABD6FEF79E6E8E161507040E04049
:0C011000E1F700C00000DECFF894FFCF44
:00000001FF
