:100000000C942F000C9400000C9400000C94000041
:100010000C9400000C9400000C9400000C94000060
:100020000C9400000C9400000C9400000C94000050
:100030000C9400000C9400000C9400000C94000040
:100040000C9400000C9400000C9400000C94000030
:040050000C9400000C
:10005E00BFE5BDBFB8E0BEBFB1B3BB7FB1BBB1B3EF
:10006E00B77FB1BBB2B3B460B2BBB2B3B860B2BB10
:10007E00B4B3B160B4BBB4B3B260B4BBB0B3B2FD91
:10008E0013C027E01FE700E50A95F1F71A95E1F78F
:10009E002A95D1F70000000005B2B1E00B2605BA93
:1000AE00B0B3B2FD01C0FCCFB0B3B3FD13C027E0B7
:1000BE001FE700E50A95F1F71A95E1F72A95D1F7B2
:1000CE000000000005B2B2E00B2605BAB0B3B3FDD6
:0800DE0001C0FCCFD3CFFFCF1E
:0A00540005900D920197E1F7089561
:00000001FF
