S0110000377365676D656E74312E73726563B8
S11300000C942A000C9434000C9434000C943400A6
S11300100C9434000C9434000C9434000C9434008C
S11300200C9434000C9434000C9434000C9434007C
S11300300C9434000C9434000C9434000C9434006C
S11300400C9434000C9434000C9434000C9434005C
S11300500C94340011241FBECFE5D8E0DEBFCDBF21
S11300600E9436000C94EA000C9400008FEF8ABBC7
S11300709FE3D0E3CBE5BFE4A6E6FDE6EDE777E05A
S11300808FE76FE657E749E339E70F2EF1E7FF2ED5
S1130090F02D9BBB0FE71AE126E0015010402040F1
S11300A0E1F700C00000DBBB0FE71AE126E00150D6
S11300B010402040E1F700C00000CBBB0FE71AE17D
S11300C026E0015010402040E1F700C00000BBBB17
S11300D00FE71AE126E0015010402040E1F700C08C
S11300E00000ABBB0FE71AE126E0015010402040AE
S11300F0E1F700C00000FBBB0FE71AE126E0015066
S113010010402040E1F700C00000EBBB0FE71AE10C
S113011026E0015010402040E1F700C000007BBB06
S11301200FE71AE126E0015010402040E1F700C03B
S113013000008BBB0FE71AE126E00150104020407D
S1130140E1F700C000006BBB0FE71AE126E00150A5
S113015010402040E1F700C000005BBB0FE71AE14C
S113016026E0015010402040E1F700C000008BBBA6
S11301700FE71AE126E0015010402040E1F700C0EB
S113018000004BBB0FE71AE126E00150104020406D
S1130190E1F700C000009BBB0FE71AE126E0015025
S11301A010402040E1F700C000003BBB0FE71AE11C
S11301B026E0015010402040E1F700C00000FBBAE7
S11301C00FE71AE126E0015010402040E1F700C09B
S10B01D000005FCFF894FFCF9B
S9030000FC
