S0190000706F7274435F776974685F7377697463682E73726563F7
S11300000C942A000C9434000C9434000C943400A6
S11300100C9434000C9434000C9434000C9434008C
S11300200C9434000C9434000C9434000C9434007C
S11300300C9434000C9434000C9434000C9434006C
S11300400C9434000C9434000C9434000C9434005C
S11300500C94340011241FBECFE5D8E0DEBFCDBF21
S11300600E9436000C948F000C940000D09884B346
S11300708FEF84BB61E070E0839927C08AE18A95A1
S1130080F1F700C020E030E045B3CB01022E02C0FE
S1130090880F991F0A94E2F7942F982B95BBEFE5EC
S11300A0FAEE3197F1F700C0000095B380958923EB
S11300B085BB8FE59AEE0197F1F700C000002F5F32
S11300C03F4F2830310501F701C0A898829925C017
S11300D09AE19A95F1F700C027E030E045B3CB01EF
S11300E0022E02C0880F991F0A94E2F7942F982BCE
S11300F095BBEFE5FAEE3197F1F700C0000095B338
S11301008095892385BB8FE59AEE0197F1F700C0AE
S113011000002150310910F7AFCFA898ADCFF89463
S1050120FFCF0B
S9030000FC
