S0220000626C7565746F6F74685F73706565645F636F6E74726F6C6C65722E7372656319
S11300000C942A000C9434000C9434000C943400A6
S11300100C9434000C9434000C9434000C9434008C
S11300200C9434000C9434000C9434000C9434007C
S11300300C9434000C9434000C9434000C9434006C
S11300400C9434000C9434000C9434000C9434005C
S11300500C94340011241FBECFE5D8E0DEBFCDBF21
S11300600E9482000C94DA000C940000811103C0F9
S113007083B783BF0895813021F483B7806483BF3D
S11300800895823021F483B7886083BF0895833054
S113009019F483B7886483BF089593B7987F93BF97
S11300A093B7892B83BF089523B730E1839FC001A1
S11300B01124822B83BF0895811103C085B585BDAA
S11300C00895813021F485B5806485BD089582301A
S11300D021F485B5886085BD0895833019F485B50C
S11300E0886485BD089595B5987F95BD95B5892B90
S11300F085BD089525B530E1839FC0011124822B6D
S113010085BD08950E94CE0088E087BB80E881BB4E
S11301108FE084BB83E00E94360084E00E944D009F
S113012082E00E94540083E00E945C0084E00E940C
S1130130730082E00E947A0005E0CFEF1AE0D4EB6E
S11301400E94D600813639F4A99AA898AB9AAA9845
S1130150CCBFC3BDF5CF823629F415BBAD9ADCBF45
S1130160D3BDEECF833629F4AB9AAA98CCBFC3BDD6
S1130170E7CF843629F4A99AA898CCBFC3BDE0CFB1
S1130180853621F405BBCCBFC3BDDACF8636C1F6B4
S1130190AD98A898A998AA98AB98D2CF88E18AB9C3
S11301A086E880BD10BC83E389B908955F9BFECFC8
S10B01B08CB10895F894FFCF0F
S9030000FC
