:100000000C942A000C943F000C943F000C943F0089
:100010000C943F000C943F000C943F000C943F0064
:100020000C943F000C943F000C943F000C943F0054
:100030000C943F000C943F000C943F000C943F0044
:100040000C943F000C943F000C943F000C943F0034
:100050000C943F0011241FBECFE5D8E0DEBFCDBF1A
:1000600010E0A0E6B0E0E8E2F1E002C005900D92F9
:10007000A038B107D9F70E9441000C9492000C946B
:100080000000CF93DF93CDB7DEB7A0970FB6F894FB
:10009000DEBF0FBECDBF87B38FEF87BB80E2E0E648
:1000A000F0E0DE01119601900D928A95E1F780E073
:1000B00090E005C08031910510F080E090E08399D8
:1000C00016C0FC01EE0FFF1F21E030E02C0F3D1F9A
:1000D000E20FF31F208128BB3FE745EB21E03150C1
:1000E00040402040E1F700C000000196E3CF829934
:1000F000E1CF019712F48FE090E0FC01EE0FFF1FBB
:1001000021E030E02C0F3D1FE20FF31F208128BBC0
:100110003FE745EB21E0315040402040E1F700C08F
:080120000000C8CFF894FFCFE6
:100128003F0006005B004F0066006D007D00070081
:100138007F006F0077007C0039005E007900710055
:00000001FF
