:100000000C94EF060C9400000C9400000C9400007B
:100010000C9400000C9400000C9400000C94000060
:100020000C9400000C9400000C9400000C94000050
:100030000C9400000C9400000C9400000C94000040
:100040000C9400000C9400000C9400000C94000030
:040050000C9400000C
:100DDE00BFE5BDBFB8E0BEBF0E94CD072F923F92C8
:100DEE004F925F92B1B3BB7FB1BBB2B3B460B2BB33
:100DFE00B3E04B2EB8E32B2EB0E03B2E9BDB7EDA1E
:100E0E00B1E02B2E3CDFBCE02B2E39DF29E01EE1BA
:100E1E0005EE0A95F1F71A95E1F72A95D1F700003C
:100E2E00BFEE4B2EB0E05B2EB1E03B2EB1E02B2E91
:100E3E0088DFB5EB4B2EB0E05B2EB1E03B2EB2E07F
:100E4E002B2E7FDFB0B3B2FD23C0A2DBB1E02B2E81
:100E5E0016DF22E51BE200E00A95F1F71A95E1F79D
:100E6E002A95D1F70000000000000000B4EC4B2ED4
:100E7E00B0E05B2EB1E03B2EB1E02B2E62DFB6EA86
:100E8E004B2EB0E05B2EB1E03B2EB2E02B2E59DFA5
:040E9E00D9CFFFCFDA
:10054200B42D31E0BB2319F0330FBA95E9F730939C
:100552005D01032F009500935E01209259013092B4
:100562005A01122D232D1150204010935B0120932C
:100572005C01E12FF22F0081032BE12FF22F008388
:10058200E0915901F0915A01108100915E0101231D
:0C059200E0915901F0915A010083089596
:10030A00B0913200BF7BB0933200B0913200BF7E11
:10031A00B0933200B0913500BF77B0933500B091F9
:10032A003500BF7BB0933500B0913500BF7DB093E7
:10033A003500B0913500BF7EB0933500B0913100E1
:10034A00B064B0933100B0913100B061B093310024
:10035A00B0913400B061B0933400B0913400B0620F
:10036A00B0933400B0913400B064B0933400B091CB
:10037A003400B068B0933400B4DFB3DFB2DFB091B9
:10038A003500B062B0933500B0913500B061B093DA
:10039A003500B0913200B064B09332009DDFB09165
:1003AA003200BF7BB09332009CDFB0913200B06460
:1003BA00B093320091DFB0913200BF7BB09332002C
:1003CA0090DFB0913200B064B093320085DFB09113
:1003DA003200BF7BB093320084DFB0913500BF7E1C
:1003EA00B0933500B0913200B064B093320074DF3C
:1003FA00B0913200BF7BB093320073DFB09132000C
:10040A00B064B093320068DFB0913200BF7BB09322
:10041A003200B0913500BF7DB0933500B091350000
:10042A00B068B0933500B0913200B064B093320036
:10043A0053DFB0913200BF7BB093320052DFB091EC
:10044A003500BF77B0933500B0913500B061B093F5
:10045A003500B0913200B064B09332003DDFB09104
:10046A003200BF7BB0933200B0913500BF7EB093AB
:10047A003500B0913200B064B09332002DDFB091F4
:10048A003200BF7BB09332002CDFB0913200B064EF
:10049A00B093320021DFB0913200BF7BB0933200BB
:1004AA00B0913500B061B0933500B0913200B064BC
:1004BA00B093320011DFB0913200BF7BB0933200AB
:1004CA0010DFB0913500BF7EB0933500B091320095
:1004DA00B064B093320000DFB0913200BF7BB093BA
:1004EA003200B0913500B068B0933500B091350054
:1004FA00B064B0933500B0913500B062B093350066
:10050A00B0913500B061B0933500B0913200B0645B
:10051A00B0933200E1DEB0913200BF7BB09332007B
:0E052A00E0DEB0915801B160B0935801089521
:1002EC0013E708E40A95F1F71A95E1F70000089571
:0002FC0002
:0A02E20005E00A95F1F70000089509
:100C8C0027FAB0913500B7F9B093350026FAB09138
:100C9C003500B6F9B093350025FAB0913500B5F9A9
:100CAC00B093350024FAB0913500B4F9B093350007
:100CBC00B091580100903200E894B0FF689404F8A9
:100CCC0000923200B0913200B064B093320003DB7A
:100CDC00B0913200BF7BB093320023FAB091350053
:100CEC00B7F9B093350022FAB0913500B6F9B0934C
:100CFC00350021FAB0913500B5F9B093350020FAE2
:100D0C00B0913500B4F9B0933500B0915801009012
:100D1C003200E894B0FF689404F800923200B0916D
:100D2C003200B064B0933200D6DAB0913200BF7B9F
:100D3C00B0933200B0915801B0FF02C0D1DA01C0BB
:040D4C00D7DA089555
:0E02FC0012E009E00A95F1F71A95E1F708956E
:100D50002F920FC0B0E82B2E19C0B0EC2B2E16C06E
:100D6000B4E92B2E13C0B4ED2B2E10C0B0E82B2EFF
:100D70000DC0B1E02B1671F3B2E02B1671F3B3E0A6
:100D80002B1671F3B4E02B1671F3F0CF032D015045
:100D9000020D202E202E7ADFB0915801BE7FB09335
:100DA000580110E0E12FF0E0E40DF51D0081002373
:100DB00079F0E12FF0E0E40DF51D00811F932F92F3
:100DC000202EADD92F901F91012F0F5F102FEACF4A
:0E0DD000B0915801B160B09358012F90089572
:10011E00B0915801BE7FB0935801B1D5B09158013E
:08012E00B160B093580108957F
:10059E002F923F924F925F92B1E02B2E70D315E1C6
:1005AE0007EC0A95F1F71A95E1F7B0E24B2EB1E0A0
:1005BE005B2EB1E03B2EB1E02B2EC3D3B0E94B2E18
:1005CE00B1E05B2EB7E12B2EB4E03B2EADDDBCE1EE
:1005DE004B2EB1E05B2EB5E03B2EB1E02B2EB1D30E
:1005EE00B0E94B2EB1E05B2EB7E12B2EB4E03B2EE3
:1005FE009BDDB9E24B2EB1E05B2EB9E03B2EB1E0B4
:10060E002B2E9FD3B0E94B2EB1E05B2EB1E22B2EF9
:10061E00B6E03B2E89DDB5E24B2EB1E05B2EBDE0A0
:10062E003B2EB1E02B2E8DD3B0E94B2EB1E05B2EDD
:10063E00B1E22B2EB6E03B2E77DDB8E14B2EB1E0CA
:10064E005B2EB1E03B2EB2E02B2E7BD3B0E94B2ECE
:10065E00B1E05B2EB0EE2B2EB6E03B2E65DDBEE09C
:10066E004B2EB1E05B2EB4E03B2EB2E02B2E69D3C5
:10067E00B0E94B2EB1E05B2EB0EE2B2EB6E03B2E4A
:10068E0053DDB9E04B2EB1E05B2EB8E03B2EB2E06D
:10069E002B2E57D3B8EE4B2EB3E05B2EB1E22B2EA2
:1006AE00B6E03B2E41DDB1E02B2EE9D215E107EC91
:1006BE000A95F1F71A95E1F7B4E14B2EB1E05B2EF6
:1006CE00B1E03B2EB1E02B2E3CD3B0E94B2EB1E086
:1006DE005B2EB5E72B2EB5E03B2E26DDB2E14B2E81
:1006EE00B1E05B2EB5E03B2EB1E02B2E2AD3B0E964
:1006FE004B2EB1E05B2EB5E72B2EB5E03B2E14DD75
:10070E00BEE24B2EB1E05B2EB7E03B2EB1E02B2EBE
:10071E0018D3B0E94B2EB1E05B2EB7E22B2EB5E02D
:10072E003B2E02DDBBE44B2EB1E05B2EBAE03B2E3E
:10073E00B1E02B2E06D3B0E94B2EB1E05B2EB7E223
:10074E002B2EB5E03B2EF0DCB6E44B2EB1E05B2E4B
:10075E00B1E03B2EB2E02B2EF4D2B0E94B2EB1E03D
:10076E005B2EB7E92B2EB4E03B2EDEDCB4E54B2E30
:10077E00B1E05B2EB6E03B2EB2E02B2EE2D2B0E91A
:10078E004B2EB1E05B2EB7E92B2EB4E03B2ECCDC2A
:10079E00BFE44B2EB1E05B2EBAE03B2EB2E02B2E27
:1007AE00D0D2B8EE4B2EB3E05B2EB7E12B2EB4E0D9
:1007BE003B2EBADCB1E02B2E62D215E107EC0A9586
:1007CE00F1F71A95E1F7B3E44B2EB1E05B2EB1E0F1
:1007DE003B2EB1E02B2EB5D2B0E94B2EB1E05B2E05
:1007EE00B1E22B2EB6E03B2E9FDCB7E34B2EB1E0F1
:1007FE005B2EB4E03B2EB1E02B2EA3D2B0E94B2EF4
:10080E00B1E05B2EB1E22B2EB6E03B2E8DDCB2E3D7
:10081E004B2EB1E05B2EB5E03B2EB1E02B2E91D2EC
:10082E00B0E94B2EB1E05B2EB5E72B2EB5E03B2E9B
:10083E007BDCBFE34B2EB1E05B2EBAE03B2EB1E08A
:10084E002B2E7FD2B0E94B2EB1E05B2EB5E72B2ECF
:10085E00B5E03B2E69DCB9E34B2EB1E05B2EB1E087
:10086E003B2EB2E02B2E6DD2B0E94B2EB1E05B2EBB
:10087E00B7E22B2EB5E03B2E57DCBAE84B2EB0E09C
:10088E005B2EB7E03B2EB2E02B2E5BD2B0E94B2EA7
:10089E00B1E05B2EB7E22B2EB5E03B2E45DCBDE87A
:1008AE004B2EB0E05B2EBAE03B2EB2E02B2E49D29F
:1008BE00B8EE4B2EB3E05B2EB7E92B2EB4E03B2EF9
:1008CE0033DCB1E02B2EDBD115E107EC0A95F1F705
:1008DE001A95E1F7B3E84B2EB0E05B2EB1E03B2E5C
:1008EE00B1E02B2E2ED2B0E94B2EB1E05B2EB1E251
:1008FE002B2EB6E03B2E18DCB8E84B2EB0E05B2E6C
:10090E00B6E03B2EB1E02B2E1CD2B0E94B2EB1E05F
:10091E005B2EB1E22B2EB6E03B2E06DCB9E94B2E58
:10092E00B0E05B2EB8E03B2EB1E02B2E0AD2B0E940
:10093E004B2EB1E05B2EB5E72B2EB5E03B2EF4DB54
:10094E00BDE94B2EB0E05B2EBBE03B2EB1E02B2E73
:10095E00F8D1B0E94B2EB1E05B2EB5E72B2EB5E00A
:10096E003B2EE2DBB2E94B2EB0E05B2EB1E03B2E2C
:10097E00B2E02B2EE6D1B0E94B2EB1E05B2EB7E202
:10098E002B2EB5E03B2ED0DBB5E94B2EB0E05B2E27
:10099E00B4E03B2EB2E02B2ED4D1B0E94B2EB1E019
:1009AE005B2EB7E22B2EB5E03B2EBEDBB9E64B2E0F
:1009BE00B0E05B2EB8E03B2EB2E02B2EC2D1B8EEEB
:1009CE004B2EB3E05B2EB7E92B2EB4E03B2EACDB07
:1009DE00B1E02B2E54D115E107EC0A95F1F71A95DB
:1009EE00E1F7BDE64B2EB0E05B2EB1E03B2EB1E061
:1009FE002B2EA7D1B0E94B2EB1E05B2EB7E12B2EFB
:100A0E00B4E03B2E91DBB0E64B2EB0E05B2EB5E0B2
:100A1E003B2EB1E02B2E95D1B0E94B2EB1E05B2EE3
:100A2E00B7E12B2EB4E03B2E7FDBB4E64B2EB0E0CD
:100A3E005B2EB9E03B2EB1E02B2E83D1B0E94B2ECD
:100A4E00B1E05B2EB1E22B2EB6E03B2E6DDBBBE7A9
:100A5E004B2EB0E05B2EBDE03B2EB1E02B2E71D1C4
:100A6E00B0E94B2EB1E05B2EB1E22B2EB6E03B2E61
:100A7E005BDBBFE74B2EB0E05B2EB1E03B2EB2E06E
:100A8E002B2E5FD1B0E94B2EB1E05B2EB0EE2B2EAC
:100A9E00B6E03B2E49DBB2E74B2EB0E05B2EB4E066
:100AAE003B2EB2E02B2E4DD1B0E94B2EB1E05B2E9A
:100ABE00B0EE2B2EB6E03B2E37DBB6E74B2EB0E07A
:100ACE005B2EB8E03B2EB2E02B2E3BD1B8EE4B2E78
:100ADE00B3E05B2EB1E22B2EB6E03B2E25DBB1E070
:100AEE002B2ECDD015E107EC0A95F1F71A95E1F70B
:100AFE00B1E02B2EC4D015E107EC0A95F1F71A954B
:100B0E00E1F7B2EA4B2EB0E05B2EB1E03B2EB1E046
:100B1E002B2E17D1B0E94B2EB1E05B2EB5E72B2E65
:100B2E00B5E03B2E01DBBEED4B2EB0E05B2EB5E00B
:100B3E003B2EB1E02B2E05D1B0E94B2EB1E05B2E52
:100B4E00B5E72B2EB5E03B2EEFDAB0EE4B2EB0E034
:100B5E005B2EB7E03B2EB1E02B2EF3D0B0E94B2E3F
:100B6E00B1E05B2EB7E22B2EB5E03B2EDDDAB5ED14
:100B7E004B2EB0E05B2EBAE03B2EB1E02B2EE1D037
:100B8E00B0E94B2EB1E05B2EB7E22B2EB5E03B2E3B
:100B9E00CBDAB9ED4B2EB0E05B2EB1E03B2EB2E0DE
:100BAE002B2ECFD0B0E94B2EB1E05B2EB7E92B2E1A
:100BBE00B4E03B2EB9DAB0E04B2EB1E05B2EB6E0DE
:100BCE003B2EB2E02B2EBDD0B0E94B2EB1E05B2E0A
:100BDE00B7E92B2EB4E03B2EA7DAB4E04B2EB1E0F2
:100BEE005B2EBAE03B2EB2E02B2EABD0B8EE4B2EE6
:100BFE00B3E05B2EB7E12B2EB4E03B2E95DA22E567
:100C0E001BE200E00A95F1F71A95E1F72A95D1F764
:100C1E000000000000000000B1E02B2E30D015E1E6
:100C2E0007EC0A95F1F71A95E1F7B4EE4B2EB0E00A
:100C3E005B2EB3E03B2EB2E02B2E83D0B4E64B2ED0
:100C4E00B0E05B2EBDE22B2EB8E03B2E6DDA22E03B
:100C5E0010EA03E90A95F1F71A95E1F72A95D1F70B
:100C6E000000BCED4B2EB5E05B2EBDE22B2EB8E0A6
:0E0C7E003B2E5ADA5F904F903F902F900895D2
:10013600CF93DF93CDB7DEB72497CDBFDEBF219631
:1001460096DF48EE53E060E070E096DFA10160E0E4
:10015600762FC0DF8B019C0136952795179507955D
:100166000883198384DFA20160E0762F85DF48814A
:10017600598160E0762F440F551F661F771FAADF4F
:100186008B019C01A801B9017F936F935F934F93F5
:100196004AE050E00881198189DF8C014F915F9117
:1001A6006F917F910883198300E010E020E030E032
:1001B600041715072607370708F07DC0E091590197
:1001C600F0915A01108100915D01012BE0915901D6
:1001D600F0915A0100838E01F801319600810023C7
:1001E60019F1B0E0BA83BB83342F452F562F672F02
:1001F6008E01F801319620810A811B810217B0E039
:100206001B0768F43F922F92222421DF2F903F9004
:100216000A811B810F5F1F4F0A831B83E9CF762F4D
:10022600652F542F432F00C0FE0100813F922F926D
:10023600202E0DDF2F903F90E0915901F0915A0149
:10024600108100915E010123E0915901F0915A015C
:1002560000838E01F801319600810023D9F0B0E0C9
:10026600BA83BB838E01F801319620810A811B81F6
:100276000217B0E01B0768F43F922F922224E7DEB4
:100286002F903F900A811B810F5F1F4F0A831B83AC
:10029600E9CF00C0FE0100813F922F92202ED7DECB
:1002A6002F903F908A019B01015010402040304022
:1002B600A801B90179CFE0915901F0915A01108155
:1002C60000915E010123E0915901F0915A010083EA
:0C02D6002396CDBFDEBFDF91CF910895CD
:0A00740000E81EE320E030E00895EC
:10005400022C022CB4E00B1A00E0001530F4B1E0DD
:100064000B1A000000000000F7CF00000000089504
:000074008C
:10007E00BB27AA279927882700FF04C0840F951F46
:10008E00A61FB71F440F551F661F771F369527955E
:10009E001795079589F730502040100769F79D0195
:0400AE008C01089524
:1000DA00C9019A01AB01B801A1E21A2EAA1BBB1BE6
:1000EA00FD010DC0AA1FBB1FEE1FFF1FA217B307FA
:1000FA00E407F50720F0A20BB30BE40BF50B661F20
:10010A00771F881F991F1A9469F7609570958095D3
:04011A00909508951F
:1000B200C801BA01AA1BBB1B51E107C0AA1FBB1F83
:1000C200A617B70710F0A61BB70B881F991F5A95E2
:0800D200A9F7809590950895AF
:0A05380005900D920197E1F7089578
:100F9A00A0E6B0E0E2EAFEE088EF90E00E949C0260
:020FAA000895A8
:040EA2006B6C650010
:050EA6005477696E00A5
:040EAB00536B79000C
:050EAF005477696E009C
:040EB400746C6500F5
:050EB80053746172009B
:040EBD006B6C6500F5
:040EC1006C697400E4
:050EC5004C696B6500A3
:020ECA004100E5
:030ECC00736F0041
:050ECF0068696768007E
:030ED400496E0064
:040ED70054686500F6
:040EDB004469610005
:050EDF006D6F6E640060
:040EE400486F7700DC
:0F0EE800746F207374617274206D757369630089
:0F0EF700746F207374617274206D75736963007A
:100F060050726573732074686520627574746F6EB1
:010F160000DA
:040F1700646572009B
:050F1B0077686174001D
:020F2000490086
:040F2200776F6E0077
:0B0F26005468616E6B20796F7521002C
:100F310050726573732074686520627574746F6E86
:010F410000AF
:040F4200796F75004E
:050F460061726521004D
:050F4B00537461720007
:040F5000746C650058
:020F5400490052
:040F5600486F770069
:040F5A006C6974004A
:040F5E006B6C650053
:050F62005477696E00E8
:040F67006B6C65004A
:050F6B005477696E00DF
:040F7000776F6E0029
:050F7400626F766500CC
:020F7900410035
:060F7B00576F726C640068
:040F8100546865004B
:030F8500557000A4
:050F88007768617400B0
:040F8D006465720025
:050F9100617265210002
:040F9600796F7500FA
:00000001FF
